{
  "contractName": "TodoList",
  "abi": [
    {
      "inputs": [],
      "stateMutability": "nonpayable",
      "type": "constructor"
    },
    {
      "anonymous": false,
      "inputs": [
        {
          "indexed": false,
          "internalType": "string",
          "name": "task",
          "type": "string"
        },
        {
          "indexed": false,
          "internalType": "uint256",
          "name": "taskNumber",
          "type": "uint256"
        }
      ],
      "name": "TaskCreateEvent",
      "type": "event"
    },
    {
      "inputs": [],
      "name": "taskCount",
      "outputs": [
        {
          "internalType": "uint256",
          "name": "",
          "type": "uint256"
        }
      ],
      "stateMutability": "view",
      "type": "function",
      "constant": true
    },
    {
      "inputs": [
        {
          "internalType": "uint256",
          "name": "",
          "type": "uint256"
        }
      ],
      "name": "tasks",
      "outputs": [
        {
          "internalType": "string",
          "name": "taskName",
          "type": "string"
        },
        {
          "internalType": "bool",
          "name": "isComplete",
          "type": "bool"
        }
      ],
      "stateMutability": "view",
      "type": "function",
      "constant": true
    },
    {
      "inputs": [
        {
          "internalType": "string",
          "name": "_taskName",
          "type": "string"
        }
      ],
      "name": "create",
      "outputs": [],
      "stateMutability": "nonpayable",
      "type": "function"
    }
  ],
  "bytecode": "0x608060405234801561001057600080fd5b5060008081905550610753806100276000396000f3fe608060405234801561001057600080fd5b50600436106100415760003560e01c80638d97767214610046578063b6a46b3b14610077578063b6cb58a514610093575b600080fd5b610060600480360381019061005b9190610327565b6100b1565b60405161006e929190610408565b60405180910390f35b610091600480360381019061008c919061056d565b61016a565b005b61009b610234565b6040516100a891906105c5565b60405180910390f35b60016020528060005260406000206000915090508060000180546100d49061060f565b80601f01602080910402602001604051908101604052809291908181526020018280546101009061060f565b801561014d5780601f106101225761010080835404028352916020019161014d565b820191906000526020600020905b81548152906001019060200180831161013057829003601f168201915b5050505050908060010160009054906101000a900460ff16905082565b6040518060400160405280828152602001600015158152506001600080600081548092919061019890610670565b91905055815260200190815260200160002060008201518160000190805190602001906101c692919061023a565b5060208201518160010160006101000a81548160ff0219169083151502179055509050507fef3321c2c29aca3a4d83ddc45f1c9bf27ada29a4334546a58d954600d90d9fd181600160005461021b91906106b9565b6040516102299291906106ed565b60405180910390a150565b60005481565b8280546102469061060f565b90600052602060002090601f01602090048101928261026857600085556102af565b82601f1061028157805160ff19168380011785556102af565b828001600101855582156102af579182015b828111156102ae578251825591602001919060010190610293565b5b5090506102bc91906102c0565b5090565b5b808211156102d95760008160009055506001016102c1565b5090565b6000604051905090565b600080fd5b600080fd5b6000819050919050565b610304816102f1565b811461030f57600080fd5b50565b600081359050610321816102fb565b92915050565b60006020828403121561033d5761033c6102e7565b5b600061034b84828501610312565b91505092915050565b600081519050919050565b600082825260208201905092915050565b60005b8381101561038e578082015181840152602081019050610373565b8381111561039d576000848401525b50505050565b6000601f19601f8301169050919050565b60006103bf82610354565b6103c9818561035f565b93506103d9818560208601610370565b6103e2816103a3565b840191505092915050565b60008115159050919050565b610402816103ed565b82525050565b6000604082019050818103600083015261042281856103b4565b905061043160208301846103f9565b9392505050565b600080fd5b600080fd5b7f4e487b7100000000000000000000000000000000000000000000000000000000600052604160045260246000fd5b61047a826103a3565b810181811067ffffffffffffffff8211171561049957610498610442565b5b80604052505050565b60006104ac6102dd565b90506104b88282610471565b919050565b600067ffffffffffffffff8211156104d8576104d7610442565b5b6104e1826103a3565b9050602081019050919050565b82818337600083830152505050565b600061051061050b846104bd565b6104a2565b90508281526020810184848401111561052c5761052b61043d565b5b6105378482856104ee565b509392505050565b600082601f83011261055457610553610438565b5b81356105648482602086016104fd565b91505092915050565b600060208284031215610583576105826102e7565b5b600082013567ffffffffffffffff8111156105a1576105a06102ec565b5b6105ad8482850161053f565b91505092915050565b6105bf816102f1565b82525050565b60006020820190506105da60008301846105b6565b92915050565b7f4e487b7100000000000000000000000000000000000000000000000000000000600052602260045260246000fd5b6000600282049050600182168061062757607f821691505b6020821081141561063b5761063a6105e0565b5b50919050565b7f4e487b7100000000000000000000000000000000000000000000000000000000600052601160045260246000fd5b600061067b826102f1565b91507fffffffffffffffffffffffffffffffffffffffffffffffffffffffffffffffff8214156106ae576106ad610641565b5b600182019050919050565b60006106c4826102f1565b91506106cf836102f1565b9250828210156106e2576106e1610641565b5b828203905092915050565b6000604082019050818103600083015261070781856103b4565b905061071660208301846105b6565b939250505056fea264697066735822122045caf4f24f0f342f2f0c58cc0bf2341b13a783e4e1a57417ccdb5a2d9756db3c64736f6c634300080b0033",
  "immutableReferences": {},
  "source": "// SPDX-License-Identifier: GPL-3.0\n\npragma solidity >=0.7.0 <0.9.0;\n\ncontract TodoList {\n    constructor() {\n        taskCount = 0;\n    }\n\n    struct Task {\n        string taskName;\n        bool isComplete;\n    }\n\n    uint public taskCount;\n\n    mapping(uint => Task) public tasks;\n\n    event TaskCreateEvent(string task, uint taskNumber);\n\n    function create(string memory _taskName) public {\n        tasks[taskCount++] = Task(_taskName, false);\n        emit TaskCreateEvent(_taskName, taskCount-1);\n    }\n}\n",
  "sourcePath": "/Users/charlesarchibong/Documents/dev.nosync/BlockchainProjects/Contracts/todo_list/contracts/TodoList.sol",
  "compiler": {
    "name": "solc",
    "version": "0.8.11+commit.d7f03943.Emscripten.clang"
  },
  "schemaVersion": "3.4.4",
  "updatedAt": "2022-01-12T18:53:30.465Z",
  "networkType": "ethereum",
  "devdoc": {
    "kind": "dev",
    "methods": {},
    "version": 1
  },
  "userdoc": {
    "kind": "user",
    "methods": {},
    "version": 1
  }
}